:020000040800F2
:1000000000000220D50F0008251000082510000868
:100010002510000825100008251000080000000029
:100020000000000000000000000000002510000893
:10003000251000080000000025100008E304000857
:1000400025100008251000082510000825100008BC
:1000500025100008251000082510000825100008AC
:10006000251000082510000825100008251000089C
:10007000251000082510000825100008251000088C
:10008000251000082510000825100008251000087C
:10009000251000082510000825100008251000086C
:1000A000251000082510000825100008251000085C
:1000B000251000082510000825100008251000084C
:1000C000251000082510000825100008251000083C
:1000D000251000082510000825100008251000082C
:1000E000251000082510000825100008251000081C
:1000F000251000082510000825100008251000080C
:1001000025100008251000082510000825100008FB
:1001100025100008251000082510000825100008EB
:1001200025100008251000082510000825100008DB
:1001300025100008251000082510000825100008CB
:1001400025100008251000082510000825100008BB
:1001500025100008251000082510000825100008AB
:10016000251000082510000825100008251000089B
:1001700025100008251000082510000800000000C8
:080180002510000825100008FD
:10018800044B05481B1A062B02D9044B03B1184728
:10019800704700BF33040020300400200000000036
:1001A80005490648091A891001EBD171491002D096
:1001B800034B03B118477047300400203004002077
:1001C8000000000010B5064C237843B9FFF7D8FFAC
:1001D800044B13B10448AFF300800123237010BD12
:1001E8003004002000000000B011000808B5084BDA
:1001F8001BB108490848AFF300800848036813B9E1
:10020800BDE80840CCE7064B002BF9D09847F7E744
:100218000000000034040020B01100083004002061
:1002280000000000F0B58DB00024474B01941A6B14
:10023800464842F010021A631A6B02F0100201924B
:10024800019A02941A6B42F004021A631A6B02F0C4
:1002580004020292029A03941A6B42F080021A6313
:100268001A6B02F080020392039A04941A6B42F00C
:1002780001021A631A6B02F001020492049A0594AF
:100288001A6B42F002021A631A6B02F0020205921C
:10029800059A06941A6B42F008021A631B6B0994BC
:1002A80003F00803032506934FF6FF7607A9069B7C
:1002B8000796089500F0F4F90796254E2548089505
:1002C80007A90127099400F0EBF9234B089307A924
:1002D80030460797099400F0E3F949F6FE7307A939
:1002E800304606F5806607930895099400F0D8F91A
:1002F8004FF6FB7307A9304607930895099400F059
:10030800CFF9042307A9304607930894099400F00D
:10031800C7F90895114D099440F6FF7307A92846B7
:1003280007934FF4704600F0BBF907A928460796D3
:10033800089709940A9400F0B3F9224631462846F2
:1003480000F0EEFA0DB0F0BD003802400010024097
:10035800000002400008024000001210000C024099
:1003680008B500F0F7F84FF4FA73B0FBF3F202FBAC
:10037800130030B94FF400410248BDE8084000F0CE
:10038800E7BA08BD000C024008B54FF47A73013B88
:10039800FDD14FF40051024800F0DAFAF5E700BF4A
:1003A800000C024030B595B0274B002101911A6C22
:1003B80042F080521A641B6C03F080530193019B36
:1003C800224B02911A6842F480421A601B6803F4B7
:1003D80080430293029B0123089309934FF48003FF
:1003E8000F93A82302240425119308A807230E9429
:1003F80010951294139300F0BBFA08B1FFF7C4FFED
:100408000F2303934FF4A0530590069305214FF44F
:10041800805303A80494079300F0C8FC04460028FE
:10042800ECD100F0CDFD4FF47A73B0FBF3F000F09F
:1004380005F9284600F018F9224621464FF0FF300A
:1004480000F0B8F815B030BD003802400070004028
:1004580008B500F05DF8FFF7A5FFFFF7E3FE4FF4DE
:10046800FA7000F07DF84FF48051024800F070FAFD
:10047800F5E700BF000C0240704708B5072000F000
:100488007DF8002211466FF00B0000F093F800226F
:1004980011466FF00A0000F08DF8002211466FF047
:1004A800090000F087F8002211466FF0040000F000
:1004B80081F8002211466FF0030000F07BF800225B
:1004C80011466FF0010000F075F8002211464FF058
:1004D800FF30BDE8084000F06DB808B500F032F80C
:1004E800BDE8084000F0D8B810B5084B04461868B5
:1004F8004FF47A73B0FBF3F000F0A0F80022214625
:100508004FF0FF3000F056F8002010BD000000202A
:1005180008B50B4B1A6842F400721A601A6842F464
:1005280080621A601A6842F480721A60032000F030
:1005380025F80020FFF7D8FFFFF79FFF002008BD30
:10054800003C0240024A136801331360704700BF41
:100558004C040020014B1868704700BF4C04002071
:1005680013B50190FFF7F6FF0446FFF7F3FF019B71
:10057800001B9842F9D302B010BD0000C31E042B23
:1005880010B5044603D9A4210848FFF775FF084AA7
:10059800D1684FF6FF030B4043F0BF63240243F4D6
:1005A800003304F4E0642343D36010BDC81100088D
:1005B80000ED00E00F2A70B505460E46144603D933
:1005C800BC211B48FFF758FF0F2E03D9BD2118483F
:1005D800FFF752FF174BDB68C3F30223C3F107028F
:1005E800191D042A28BF042206294FF0010101FA27
:1005F80002F202F1FF328CBF033B002332409A40E3
:1006080001FA03F3013B1C40002D44EA02044FEABF
:100618000414AFBF05F1604505F00F05064BE4B2C1
:10062800A5BF05F56145E4B25C5585F8004370BD8A
:10063800C811000800ED00E014ED00E00138B0F149
:10064800807F0AD2064B074A5860F02182F82310AF
:100658000020072298601A6070470120704700BF89
:1006680010E000E000ED00E0042810B5084C09D0C7
:1006780020B140F2B3110748FFF7FEFE236823F0CC
:10068800040302E0236843F00403236010BD00BFA5
:1006980010E000E0C811000808B5FFF761FE08BDCA
:1006A800994B98422DE9F74F04460D4623D003F5A0
:1006B800806398421FD003F5806398421BD003F5EE
:1006C8008063984217D003F58063984213D003F5EE
:1006D800806398420FD003F5806398420BD003F5EE
:1006E8008063984207D003F58063984203D0C52100
:1006F8008648FFF7C1FE2B881BB9C6218348FFF740
:10070800BBFE6B68032B17D9A3F11102012A13D979
:100718007F4923F400128A420ED001F580118B42E2
:100728000AD0A1F570218A4206D07A4A934203D0B2
:10073800C7217648FFF7A0FEAB68022B03D9C82172
:100748007248FFF799FEDFF8D4910026CA460127C0
:100758002B68B74037EA030340F0CE806B6823F07C
:100768001003022B1AD12B690D2B05D90F2B03D09F
:10077800D9216648FFF780FEF00804EB800006F0F8
:10078800070E016A4FEA8E0E0F2303FA0EF321EAD1
:1007980003022B6903FA0EF3134303624FEA460878
:1007A8004FF0030B21686B680BFA08FB6FEA0B0B21
:1007B80001EA0B0003F0030123F0100301FA08F12A
:1007C800013B0143012B216017D8EB68032B03D9A8
:1007D800EC214E48FFF750FEA3680BEA0301EB68D3
:1007E80003FA08F30B43A360636823EA07016B6805
:1007F800C3F30013B3400B436360E36868680BEA14
:10080800030BAB6803FA08F242EA0B02C300E2608A
:1008180072D5414A00230193516C41F480415164DF
:10082800526C26F0030101F1804102F4804201F587
:100838009C31019206F0030C019AD1F808E04FEAC6
:100848008C0C0F2202FA0CF22EEA020E2E4A944267
:100858002BD003F1804303F501339C421AD003F5F2
:1008680080639C4218D003F580639C4216D003F540
:1008780080639C4214D003F580639C4212D003F538
:1008880080639C4210D002F5E052944214BF0823C2
:1008980007230AE0012308E0022306E0032304E01B
:1008A800042302E0052300E0062303FA0CF343EADD
:1008B8000E038B60D9F80030FA43C1034CBF3B43A9
:1008C8001340CAF80030DAF8043081034CBF3B43C8
:1008D8001340C9F80430D9F80830C1024CBF3B4373
:1008E8001340CAF80830DAF80C30810254BF02EA23
:1008F80003071F43C9F80C700136102E7FF427AF89
:1009080003B0BDE8F08F00BF00000240EA11000804
:10091800000011100000221000380240003C014085
:1009280070B5054616460C4621B940F2B111074884
:10093800FFF7A2FD012E05D94FF4D9710348FFF73F
:100948009BFD01E006B92404AC6170BDEA11000802
:1009580038B504460D4621B94FF4E4710348FFF752
:100968008BFD61696940616138BD00BFEA1100080B
:1009780003680F2B2DE9F341044603D9F521994863
:10098800FFF77AFD2368D80703D42368990740D472
:10099800A0E06368012B05D9052B03D0FA21914803
:1009A800FFF76AFD904B9A6802F00C02042A07D000
:1009B8009A6802F00C02082A0BD15B685A0208D523
:1009C800894B1B689B03E0D56368002BDDD10120B0
:1009D800A4E1864B22791A7063686BB1FFF7BAFD00
:1009E800814D06462B689F03CFD4FFF7B3FD801BCC
:1009F8006428F7D9032091E1FFF7ACFD7A4D06464C
:100A08002B689803C1D5FFF7A5FD801B6428F7D98B
:100A1800F0E7E368012B04D94FF496717148FFF7AA
:100A28002BFD23691F2B04D940F22D116D48FFF7C8
:100A380023FD6D4B9A6812F00C0F07D09A6802F0EC
:100A48000C02082A17D15B68590214D4664B1A683D
:100A5800920702D5E268012AB9D11A68F82191FAF9
:100A6800A1F12069B1FA81F100FA01F122F0F8024E
:100A78000A431A602EE0E2685D4BEAB101221A606F
:100A8800FFF768FD584D06462B6857489F0705D461
:100A9800FFF760FD801B0228F6D9ABE70368F82250
:100AA80092FAA2F22169B2FA82F201FA02F223F072
:100AB800F803134303600DE01A60FFF74BFD4A4D3E
:100AC80006462B68990705D5FFF744FD801B0228C9
:100AD800F7D98FE723681A0703D423685B0728D45C
:100AE8004FE06369012B04D940F26D113D48FFF7CF
:100AF800C3FC62693F4B72B101221A60FFF72AFDFD
:100B0800394D06466B6F9F07E7D4FFF723FD801B1F
:100B18000228F7D96EE71A60FFF71CFD324D06462A
:100B28006B6F9807D9D5FFF715FD801B0228F7D9F9
:100B380060E7A368012B2DD8002301932A4B2E4D83
:100B48001A6C42F080521A641B6C03F080530193B4
:100B5800019B2B6843F480732B60FFF7FBFC064670
:100B68002B68D9051ED5254B227A1A70A3682BB39A
:100B7800FFF7F0FC1C4D064641F288372B6F9A07A9
:100B880016D5A369022B28D94FF4E6711548FFF74B
:100B980073FC22E0052BCFD040F297111148FFF7E4
:100BA8006BFCC9E7FFF7D6FC801B0228D8D921E7E0
:100BB800FFF7D0FC801BB842E0D91BE7FFF7CAFC5F
:100BC800094D064641F288372B6F9B07D9D5FFF7A9
:100BD800C1FC801BB842F7D90CE7A26982B9002092
:100BE8009CE000BF1A120008003802400238024098
:100BF80000004742800E47420070004070380240B3
:100C0800484EB36803F00C03082B3FF4E0AE022A09
:100C1800454D74D1E36933F4800304D040F2D51113
:100C28004248FFF729FC236A3F2B04D94FF4EB71A4
:100C38003E48FFF721FC636A323BB3F5BF7F04D916
:100C480040F2D7113948FFF717FCA26A082A04D8DE
:100C58004FF4AA73D340D80704D44FF4EC71334847
:100C6800FFF70AFCE36A043B0B2B04D940F2D911C5
:100C78002E48FFF701FC00232B60FFF76BFC294F80
:100C880080463B68274E990106D5FFF763FCC8EB01
:100C980000000228F5D9ADE647F6C07292FAA2F232
:100CA8004FF44033B2FA82FE93FAA3F34FF0706226
:100CB800B3FA83F792FAA2F2E069236AB2FA82F1F0
:100CC800626A034302FA0EF243EA0200A36A5A0870
:100CD800013A02FA07F3E26A03438A401343736056
:100CE80001232B60FFF736FC044633689A013FF571
:100CF80076AFFFF72FFC001B0228F6D97AE600230F
:100D08002B60FFF727FC044633689B017FF567AF2C
:100D1800FFF720FC001B0228F6D96BE602B0BDE8FD
:100D2800F08100BF00380240600047421A120008F4
:100D38001B498B6803F00C03042B2CD0082B2CD1F7
:100D480048684B6800F03F0013F4800F47F6C07204
:100D58004B6892FAA2F247F6C071B2FA82F201EA3F
:100D6800030121FA02F114BF0E4A0F4AB2FBF0F058
:100D78000B4A00FB01F352684FF4403090FAA0F0A0
:100D880002F44032B0FA80F022FA00F0013040005C
:100D9800B3FBF0F07047034870470348704700BF43
:100DA8000038024000127A000024F4000368013B76
:100DB8000E2B2DE9F04104460E4604D940F23721A6
:100DC8007A48FFF759FB072E04D94FF40E7177487C
:100DD800FFF752FB764B1A6802F00F02964203D8CF
:100DE800236898070AD427E0F2B21A701B6803F048
:100DF8000F039E42F4D00120BDE8F081A36833F0D0
:100E0800800212D023F02002902A0ED023F0400254
:100E1800A02A0AD023F01002C02A06D0F02B04D052
:100E280040F24F216148FFF727FB62498B6823F0A6
:100E3800F002A36813438B602368D90706D45C4B80
:100E48001A6802F00F02964259D360E06368032BD8
:100E580004D940F256215548FFF70EFB6368554AFE
:100E6800012B03D1126812F4003F08E0991E0129F2
:100E7800126802D812F0007F01E012F0020FBAD017
:100E88004C4DAA6822F003021343AB60FFF762FBE4
:100E98006368012B074641F288380CD1AB6803F030
:100EA8000C03042BCBD0FFF755FBC01B4045F5D9ED
:100EB8000320BDE8F081022B0AD1AB6803F00C03D4
:100EC800082BBCD0FFF746FBC01B4045F5D9EFE720
:100ED800032B0FD1AB6803F00C030C2BAFD0FFF73B
:100EE80039FBC01B4045F5D9E2E7FFF733FBC01BD0
:100EF8004045DDD8AB6813F00C0FF6D19FE7F2B28E
:100F08001A701B6803F00F039E427FF474AF2368C6
:100F18005A0717D5E36833F480520CD023F40062E3
:100F2800B2F5A05F07D0B3F5C05F04D04FF42D71C0
:100F38001E48FFF7A1FA1F498B6823F4E052E368C3
:100F480013438B6023681B0718D5236933F4805239
:100F58000CD023F40062B2F5A05F07D0B3F5C05FF0
:100F680004D040F2BB211148FFF786FA114A2169E3
:100F7800936823F4604343EAC1039360FFF7D8FE04
:100F88000C4BF0229B6892FAA2F2B2FA82F203F0BA
:100F9800F003D340084AD35CD840084B18600020BF
:100FA800FFF7A2FA0020BDE8F08100BF1A1200087E
:100FB800003C0240003802400A12000800000020ED
:100FC800014B1868704700BF00000020DFF834D0DC
:100FD800002103E00C4B5B58435004310B480C4B89
:100FE80042189A42F6D30B4A02E0002342F8043B27
:100FF800094B9A42F9D300F013F800F037F8FFF7DD
:1010080027FA704700000220501200080000002054
:10101800300400203004002050040020FEE70000C7
:101028000F49D1F8883043F47003C1F888300D4B6C
:101038001A68002042F001021A6098601A6822F0CB
:10104800847222F480321A60074A5A601A6822F4BD
:1010580080221A60D8604FF000638B60704700BF31
:1010680000ED00E0003802401030002470B50F4E4B
:101078000F4D761BB61018BF002405D0013455F863
:10108800043B9847A642F9D10A4E0B4D761B00F057
:101098008BF8B61018BF002406D0013455F8043B6D
:1010A8009847A642F9D170BD70BD00BF4412000830
:1010B800441200084C12000844120008024B13B1F5
:1010C800024800F005B8704700000000E51000086D
:1010D800002301461A46184600F014B838B5074DE3
:1010E800074C2C1BA41005D0013C55F8043D98472B
:1010F800002CF9D1BDE8384000F05CB85012000867
:101108004C1200082DE9F047254C2568D5F84841D0
:101118000646884692469946C4B360681F2817DC7D
:10112800431C76B104EB80050122C5F888A0D4F8E9
:10113800881182401143022EC4F88811C5F808911D
:101148001ED00230636044F820800020BDE8F0879C
:10115800144B03B34FF4C870AFF300800446D0B10A
:10116800D5F84831002780E88800C5F84841384656
:101178000123C4F88871C4F88C71002EE1D0D1E73E
:10118800D4F88C110A43C4F88C21DAE705F5A67463
:10119800C5F84841C1E74FF0FF30BDE8F08700BF10
:1011A8004012000800000000F8B500BFF8BC08BCF9
:1011B8009E467047F8B500BFF8BC08BC9E4670470D
:1011C8002E2E2F48414C2F5372632F73746D333278
:1011D800663478785F68616C5F636F727465782EC7
:1011E80063002E2E2F48414C2F5372632F73746D5A
:1011F8003332663478785F68616C5F6770696F2E28
:101208006300000000000102030401020304060752
:1012180008092E2E2F48414C2F5372632F73746D7B
:101228003332663478785F68616C5F7263632E630B
:0C1238000000000043000000080000203F
:08124400C5100008F5010008C7
:04124C00CD010008C8
:101250000024F4000000000000000000F402002060
:101260005C030020C4030020000000000000000018
:10127000000000000000000000000000000000006E
:101280000000000000000000000000003C12000808
:10129000000000000000000000000000000000004E
:1012A000000000000000000000000000000000003E
:1012B000000000000000000000000000000000002E
:1012C000000000000000000000000000000000001E
:1012D000000000000000000000000000000000000E
:1012E00000000000000000000000000000000000FE
:1012F00000000000000000000000000000000000EE
:1013000001000000000000000E33CDAB34126DE68A
:10131000ECDE05000B0000000000000000000000F3
:1013200000000000000000000000000000000000BD
:1013300000000000000000000000000000000000AD
:10134000000000000000000000000000000000009D
:10135000000000000000000000000000000000008D
:0400000508000FD50B
:00000001FF
